:100000000C9472000C9493000C9493000C94930045
:100010000C9493000C9493000C9493000C94930014
:100020000C9493000C9493000C9493000C94930004
:100030000C9493000C9493000C9493000C949300F4
:100040000C9493000C9493000C9493000C949300E4
:100050000C9493000C9493000C9493000C949300D4
:100060000C9493000C9493000C9493000C949300C4
:100070000C9493000C9493000C9493000C949300B4
:100080000C9493000C9493000C9493000C949300A4
:100090000C9493000C9493000C9493000C94930094
:1000A0000C9493000C9493000C9493000C94930084
:1000B0000C9493000C9493000C9493000C94930074
:1000C0000C9493000C9493000C9493000C94930064
:1000D0000C9493000C9493000C9493000C94930054
:1000E0000C94930011241FBECFEFD1E2DEBFCDBF31
:1000F00000E00CBF12E0A0E0B2E0ECE9FBE000E0C1
:100100000BBF02C007900D92A434B107D9F712E0DB
:10011000A4E4B2E001C01D92A439B107E1F70E9446
:1001200095000C94CD050C940000CF93DF93CDB7D0
:10013000DEB782E392E00E94AA0088E40E94E9040C
:100140008FE40E94E9048CE40E94E90481E40E94A7
:10015000E904F3CFCF93DF93CDB7DEB76A970FB63D
:10016000F894DEBF0FBECDBF9A8F898F84EC90E0EC
:10017000988F8F8B80EC90E09E8B8D8B81EC90E044
:100180009C8B8B8B82EC90E09A8B898B80E094E245
:10019000A4EFB0E089839A83AB83BC838CE692E0C2
:1001A000298D3A8DBC01C9010E941A022CE632E069
:1001B00080E092E0BC01C9010E943B04988B8F87CC
:1001C00082E792E00E940A05DC01CB018D839E83C9
:1001D000AF83B88788E792E00E940A05DC01CB0173
:1001E00005979E878D878EE792E09C0189E192E0DA
:1001F000BC01C9010E943B049C878B8784E892E084
:100200000E940A05DC01CB019A8789878D819E8136
:10021000AF81B885880F991FAA1FBB1F880F991F30
:10022000AA1FBB1F880F991FAA1FBB1F880F991FEA
:10023000AA1FBB1F8D839E83AF83B88789819A8154
:10024000AB81BC812D813E814F815885BC01CD01A0
:100250000E94AB05DA01C9010197A109B1098D839B
:100260009E83AF83B8878F8598898330910509F085
:100270004DC0EF89F88D208131818F859889880F55
:10028000991F880F991F880F991F820F931F8496BB
:10029000EF89F88D91838083ED89FE8920813181FA
:1002A0008F859889880F991F880F991F880F991F2C
:1002B000820F931F8496ED89FE8991838083EB8959
:1002C000FC89208131818F859889880F991F880F3B
:1002D000991F880F991F820F931F8496EB89FC89C1
:1002E00091838083E989FA89208131818F8598897A
:1002F000880F991F880F991F880F991F820F931FCE
:100300008496E989FA899183808348C0EF89F88DC2
:10031000208131818F859889880F991F880F991FB7
:10032000880F991F820F931FEF89F88D9183808327
:10033000ED89FE89208131818F859889880F991FE9
:10034000880F991F880F991F820F931FED89FE89CF
:1003500091838083EB89FC89208131818F85988905
:10036000880F991F880F991F880F991F820F931F5D
:10037000EB89FC8991838083E989FA892081318125
:100380008F859889880F991F880F991F880F991F4B
:10039000820F931FE989FA89918380838D819E81E1
:1003A000EF89F88D91838083ED89FE898081918129
:1003B0008062ED89FE8991838083EB89FC8980814D
:1003C00091818C60EB89FC8991838083E989FA892A
:1003D0004081518189859A859C01220F331F220F0C
:1003E000331F220F331F8D859E85880F991F822B07
:1003F000932B842B952BE989FA8991838083E98952
:10040000FA89208131818B859C8582959295907F98
:100410009827807F982782239323E989FA899183FB
:1004200080836A960FB6F894DEBF0FBECDBFDF9112
:10043000CF910895CF93DF93CDB7DEB728970FB64E
:10044000F894DEBF0FBECDBF9E838D8378876F8308
:100450001C821B821A82198250C02B813C81C901E7
:10046000880F991F820F931F880F991F9C018F81FE
:100470009885280F391F89819A81ED81FE814081FD
:10048000F901E80FF91F408389819A8101969A83C7
:1004900089838D819E8101969E838D83ED81FE816E
:1004A00080818A3329F0ED81FE8180818C32A9F62A
:1004B0002B813C81C901880F991F820F931F880FE0
:1004C000991F9C018F819885280F391F89819A81F6
:1004D000F901E80FF91F108289819A8101969A83A8
:1004E00089838B819C8101969C838B831A821982DC
:1004F0008D819E8101969E838D83ED81FE81808119
:10050000882329F08B819C81853091053CF22896C7
:100510000FB6F894DEBF0FBECDBFDF91CF91089527
:10052000EF92FF920F931F93CF93DF93CDB7DEB778
:1005300066970FB6F894DEBF0FBECDBF9C878B8742
:100540007E876D87588B4F873A8B298B1C8B0B8B43
:10055000FE8AED8A1A86198618861F821E821D82DF
:100560001C821B821A82198205C08B859C8501968C
:100570009C878B87EB85FC8580818032B1F316C028
:100580008F8198859C018D859E85D901A80FB91F03
:10059000EB85FC8580818C938F8198850196988767
:1005A0008F838B859C8501969C878B87EB85FC854B
:1005B00080818A3329F78F8198859C018D859E855E
:1005C000F901E80FF91F10828F81988501969887AD
:1005D0008F838B859C8501969C878B8716C08D8128
:1005E0009E819C018F859889D901A80FB91FEB8541
:1005F000FC8580818C938D819E8101969E838D8365
:100600008B859C8501969C878B87EB85FC858081FB
:100610008C3229F78D819E819C018F859889F90103
:10062000E80FF91F10828D819E8101969E838D8334
:100630008B859C8501969C878B8716C08B819C81BE
:100640009C0189899A89D901A80FB91FEB85FC857E
:1006500080818C938B819C8101969C838B838B857D
:100660009C8501969C878B87EB85FC8580818C32ED
:1006700029F78B819C819C0189899A89F901E80F6E
:10068000F91F10828B819C8101969C838B838B85C3
:100690009C8501969C878B8716C089819A819C01D5
:1006A0008B899C89D901A80FB91FEB85FC858081B6
:1006B0008C9389819A8101969A8389838B859C8505
:1006C00001969C878B87EB85FC8580818C3229F78E
:1006D00089819A819C018B899C89F901E80FF91F16
:1006E000108289819A8101969A8389838B859C8562
:1006F00001969C878B8716C089859A859C018D8978
:100700009E89D901A80FB91FEB85FC8580818C9348
:1007100089859A8501969A8789878B859C8501961C
:100720009C878B87EB85FC858081882329F78985C9
:100730009A859C018D899E89F901E80FF91F108225
:1007400089859A8501969A87898766960FB6F89467
:10075000DEBF0FBECDBFDF91CF911F910F91FF90F4
:10076000EF900895CF93DF93CDB7DEB724970FB600
:10077000F894DEBF0FBECDBF9A8389837C836B83E1
:1007800010C0EB81FC818081E981FA8180838981BD
:100790009A8101969A8389838B819C8101969C839F
:1007A0008B83EB81FC818081882359F7E981FA8171
:1007B000108289819A8124960FB6F894DEBF0FBE0D
:1007C000CDBFDF91CF9108950F931F93CF93DF9308
:1007D000CDB7DEB728970FB6F894DEBF0FBECDBFFA
:1007E0009C838B837E836D8381E090E09A838983F1
:1007F0008B819C810E9480048C018D819E810E944E
:10080000800408171907E1F018861F8227C0EB81C2
:10081000FC819081ED81FE818081981739F01A82E8
:10082000198289819A8198878F8318C08B819C81D6
:1008300001969C838B838D819E8101969E838D83FF
:10084000EB81FC818081882329F0ED81FE8180810C
:100850008823E9F689819A8198878F838F8198858B
:1008600028960FB6F894DEBF0FBECDBFDF91CF91B3
:100870001F910F910895CF93DF93CDB7DEB72897DF
:100880000FB6F894DEBF0FBECDBF9C838B837E83F3
:100890006D831A82198220C029813A81C901880F8B
:1008A000991F880F991F820F931F9C018D819E8134
:1008B000820F931F2B813C81BC01C9010E94E4037C
:1008C000009729F089819A8198878F830EC089814A
:1008D0009A8101969A83898389819A8184309105CE
:1008E000DCF28FEF9FEF98878F838F819885289612
:1008F0000FB6F894DEBF0FBECDBFDF91CF91089544
:10090000CF93DF93CDB7DEB725970FB6F894DEBF50
:100910000FBECDBF9C838B831A82198205C089814B
:100920009A8101969A838983EB81FC8180818D83F2
:100930008D81882311F081E08D838D812B813C8115
:100940002F5F3F4F3C832B83882349F789819A810E
:1009500025960FB6F894DEBF0FBECDBFDF91CF91C5
:100960000895CF93DF93CDB7DEB722970FB6F894F3
:10097000DEBF0FBECDBF9A8389830BC0E981FA81A8
:10098000208189819A8101969A838983822F0E948E
:10099000E904E981FA818081882381F722960FB6E4
:1009A000F894DEBF0FBECDBFDF91CF910895CF93F6
:1009B000DF93CDB7DEB7E0ECF0E080818823DCF791
:1009C000E6ECF0E08081992787FD9095DF91CF914B
:1009D0000895CF93DF93CDB7DEB721970FB6F89484
:1009E000DEBF0FBECDBF8983E0ECF0E08081882FB1
:1009F00090E0807290700097B9F3E6ECF0E08981A6
:100A0000808321960FB6F894DEBF0FBECDBFDF9175
:100A1000CF910895CF93DF93CDB7DEB72C970FB664
:100A2000F894DEBF0FBECDBF98878F831D821982D9
:100A30001A821B821C824CC08D81882F90E09C0101
:100A40008F819885F901E80FF91F80818033BCF10F
:100A50008D81882F90E09C018F819885F901E80FA6
:100A6000F91F80818A335CF58D81882F90E09C018D
:100A70008F819885F901E80FF91F808180538E835B
:100A800089819A81AB81BC812AE030E040E050E06E
:100A9000BC01CD010E948C059B01AC018E81882F89
:100AA00090E0A0E0B0E0820F931FA41FB51F8983E0
:100AB0009A83AB83BC838D818F5F8D8309C08981CD
:100AC0009A81AB81BC8189879A87AB87BC8715C027
:100AD0008D81882F90E09C018F819885F901E80F26
:100AE000F91F8081882309F0A7CF89819A81AB8182
:100AF000BC8189879A87AB87BC8789859A85AB85B6
:100B0000BC85BC01CD012C960FB6F894DEBF0FBE9C
:100B1000CDBFDF91CF910895629FD001739FF00107
:100B2000829FE00DF11D649FE00DF11D929FF00D7D
:100B3000839FF00D749FF00D659FF00D9927729FB4
:100B4000B00DE11DF91F639FB00DE11DF91FBD013F
:100B5000CF0111240895A1E21A2EAA1BBB1BFD018F
:100B60000DC0AA1FBB1FEE1FFF1FA217B307E4078C
:100B7000F50720F0A21BB30BE40BF50B661F771FE4
:100B8000881F991F1A9469F76095709580959095C4
:0C0B90009B01AC01BD01CF010895FFCF17
:100B9C00434F4D3000434F4D3100434F4D320043D6
:100BAC004F4D330000000000004E000000005200CA
:100BBC0000000045000000004F0000000000000095
:100BCC000000434F4D333A33383430302C382C4EF0
:040BDC002C310000B8
:00000001FF
